{
    "_format": "hh-sol-artifact-1",
    "contractName": "Transactions",
    "sourceName": "contracts/Transactions.sol",
    "abi": [
        {
            "anonymous": false,
            "inputs": [
                {
                    "indexed": false,
                    "internalType": "address",
                    "name": "from",
                    "type": "address"
                },
                {
                    "indexed": false,
                    "internalType": "address",
                    "name": "receiver",
                    "type": "address"
                },
                {
                    "indexed": false,
                    "internalType": "uint256",
                    "name": "amount",
                    "type": "uint256"
                },
                {
                    "indexed": false,
                    "internalType": "string",
                    "name": "message",
                    "type": "string"
                },
                {
                    "indexed": false,
                    "internalType": "uint256",
                    "name": "timestamp",
                    "type": "uint256"
                },
                {
                    "indexed": false,
                    "internalType": "string",
                    "name": "keyword",
                    "type": "string"
                }
            ],
            "name": "Transfer",
            "type": "event"
        },
        {
            "inputs": [],
            "name": "addToBlockchain",
            "outputs": [],
            "stateMutability": "nonpayable",
            "type": "function"
        },
        {
            "inputs": [],
            "name": "getAllTransactions",
            "outputs": [
                {
                    "components": [
                        {
                            "internalType": "address",
                            "name": "sender",
                            "type": "address"
                        },
                        {
                            "internalType": "address",
                            "name": "receiver",
                            "type": "address"
                        },
                        {
                            "internalType": "uint256",
                            "name": "amount",
                            "type": "uint256"
                        },
                        {
                            "internalType": "string",
                            "name": "message",
                            "type": "string"
                        },
                        {
                            "internalType": "uint256",
                            "name": "timestamp",
                            "type": "uint256"
                        },
                        {
                            "internalType": "string",
                            "name": "keyword",
                            "type": "string"
                        }
                    ],
                    "internalType": "struct Transactions.TransferStruct[]",
                    "name": "",
                    "type": "tuple[]"
                }
            ],
            "stateMutability": "view",
            "type": "function"
        },
        {
            "inputs": [],
            "name": "getTransactionCount",
            "outputs": [
                {
                    "internalType": "uint256",
                    "name": "",
                    "type": "uint256"
                }
            ],
            "stateMutability": "view",
            "type": "function"
        }
    ],
    "bytecode": "0x608060405234801561001057600080fd5b506103fd806100206000396000f3fe608060405234801561001057600080fd5b50600436106100415760003560e01c806327506f53146100465780632e7700f01461006457806341d44af714610082575b600080fd5b61004e61008c565b60405161005b9190610230565b60405180910390f35b61006c610091565b6040516100799190610252565b60405180910390f35b61008a610096565b005b606090565b600090565b60016000808282546100a891906102c2565b92505081905550565b60006100bd8383610182565b905092915050565b6100ce81610318565b82525050565b60006100df8261027d565b6100e981856102a0565b9350836020820285016100fb8561026d565b8060005b85811015610137578484038952815161011885826100b1565b945061012383610293565b925060208a019950506001810190506100ff565b50829750879550505050505092915050565b600061015482610288565b61015e81856102b1565b935061016e818560208601610354565b610177816103b6565b840191505092915050565b600060c08301600083015161019a60008601826100c5565b5060208301516101ad60208601826100c5565b5060408301516101c06040860182610212565b50606083015184820360608601526101d88282610149565b91505060808301516101ed6080860182610212565b5060a083015184820360a08601526102058282610149565b9150508091505092915050565b61021b8161034a565b82525050565b61022a8161034a565b82525050565b6000602082019050818103600083015261024a81846100d4565b905092915050565b60006020820190506102676000830184610221565b92915050565b6000819050602082019050919050565b600081519050919050565b600081519050919050565b6000602082019050919050565b600082825260208201905092915050565b600082825260208201905092915050565b60006102cd8261034a565b91506102d88361034a565b9250827fffffffffffffffffffffffffffffffffffffffffffffffffffffffffffffffff0382111561030d5761030c610387565b5b828201905092915050565b60006103238261032a565b9050919050565b600073ffffffffffffffffffffffffffffffffffffffff82169050919050565b6000819050919050565b60005b83811015610372578082015181840152602081019050610357565b83811115610381576000848401525b50505050565b7f4e487b7100000000000000000000000000000000000000000000000000000000600052601160045260246000fd5b6000601f19601f830116905091905056fea2646970667358221220b24188d98dcee751535d683a6d28c39bb90681b067d963dd5aabe5f994f8695764736f6c63430008000033",
    "linkReferences": {},
    "deployedLinkReferences": {}
}